:020000040800F2
:1000000090230120A1020008CF560008F34A0008FF
:10001000CD560008651900084D6D0008000000006D
:1000200000000000000000000000000097690008C8
:10003000611A000800000000D1560008096A000893
:10004000BB020008BB020008BB020008BB0200089C
:10005000BB020008BB020008BB020008BB0200088C
:10006000BB020008BB020008631A0008BB020008BC
:10007000BB020008BB0200086919000875190008D6
:10008000BB020008BB020008BB020008BB0200085C
:10009000BB020008BB020008BB020008691A000886
:1000A000B56A0008C16A0008BB020008BB0200086C
:1000B000BB020008BB020008BB020008BB0200082C
:1000C000BB020008BB020008BB020008BB0200081C
:1000D000B1620008BB020008BB020008BB020008B6
:1000E000BB020008BB020008BB020008BB020008FC
:1000F000BB020008BB020008BB020008BB020008EC
:10010000BB02000805570008BB020008BB0200083C
:10011000BB020008BB020008CD6A0008D96A0008CB
:1001200081190008BB020008BB0200088D190008F5
:1001300099190008BB020008BB020008BB020008B6
:10014000BB020008BB020008BB020008BB0200089B
:10015000A5190008B1190008BB020008BB0200087D
:10016000BB020008BB020008BB020008BB0200087B
:10017000BB020008BB0200080000000000000000F5
:10018000BB020008BB020008BB020008BB0200085B
:10019000BB020008BD62000800000000BB020008AE
:1001A000BB020008BB0200080000000000000000C5
:1001B000BB0200080000000000000000BB020008B5
:1001C000BB020008BB020008BB020008BB0200081B
:1001D000BB020008BB02000800F002F800F050F873
:1001E0000AA090E8000C82448344AAF10107DA4592
:1001F00001D100F045F8AFF2090EBAE80F0013F094
:10020000010F18BFFB1A43F001031847B4EB0000BD
:10021000D4EB0000103A24BF78C878C1FAD852074E
:1002200024BF30C830C144BF04680C607047000070
:100230000023002400250026103A28BF78C1FBD8EF
:10024000520728BF30C148BF0B607047662909F0CC
:100250008B84642900F04E81002070471FB509F09F
:100260007EFC9DE8030000F075FA00F061FD0400DB
:100270000020002109F0B6FBE0601FBD10B510BDE5
:1002800000F078FE1146FFF7E9FF08F013FE00F0DA
:1002900096FE03B4FFF7F2FF03BC00F007FF000077
:1002A0000948804709480047FEE7FEE7FEE7FEE70A
:1002B000FEE7FEE7FEE7FEE7FEE7FEE70448054946
:1002C000054A064B70470000A56A0008D9010008DE
:1002D000906300209023012090A3002090A3002091
:1002E00070B5064600F01AFA056806F10B0020F01A
:1002F0000704B4429CBF002070BD2B466A68BAB1A7
:100300001068A04210D304F1080188423CBF506835
:10031000586007D35168101941601168091B0160CA
:1003200058601460101D70BD13465268002AE7D152
:100330002146284600F0FAF90028DED170BD70B5DC
:100340000446051F00F0EAF90068002C14BF446859
:1003500070BD002C18BFAC423CBF20466468F8D387
:1003600001680A18AA4218BF456003D12A680546E9
:100370001144016028684119A1421CBF6C6070BD26
:100380006168696021680844286070BD53EA020C06
:1003900000F069802DE9F04B4FF00006002B1FBFE5
:1003A000B3FA83F503FA05F424FA05F65E4012BFAA
:1003B0001643B2FA82F502FA05F4C5F120051EBF14
:1003C00022FA05FC44EA0C04203556EA044C4FEAB4
:1003D000144418BF641C4FF000084FF0000990420D
:1003E00071EB030C39D3002919BFB1FA81F701FA77
:1003F00007F6B0FA80F700FA07F6C7F120071EBF2C
:1004000020FA07FC46EA0C062037B6FBF4FCA7EB03
:100410000507103F07F01F0BCBF120060CFA0BFB72
:100420002CFA06F644BFB3460026202FA4BF5E4632
:100430004FF0000B5BEA060C08BF4FF0010B19EB05
:100440000B09ABFB027C48EB0608C01B06FB02CC89
:100450000BFB03CC71EB0C01C1E70B460246414696
:100460004846BDE8F08B13B54FF000004FF0000197
:10047000AFF30080BDE81C40704700000FB41CB50E
:10048000074B06AA7B4469460090059800F011FCD2
:100490000020694600F020FC1CBC5DF814FB000045
:1004A0005108000070B5044685690068C10601D591
:1004B000302600E02026C00707D070BDD4E9012116
:1004C00030469047206A401C20626D1EF6D570BDF4
:1004D00070B5044685690078C00707D170BDD4E9BE
:1004E000012120209047206A401C20626D1EF6D515
:1004F00070BD00002DE9F041064600241068752902
:10050000314616A510D0AFF30080002802DA404231
:1005100013A507E031688A0701D512A502E0490753
:1005200004D511A5012401E0AFF3008000210A22C7
:1005300006F1240709E0B0FBF2FCB0FBF2F302FB8A
:100540001C00303078541846491C0028F3D123464B
:100550002A463046BDE8F04100F03DB900000000F9
:100560002D0000002B000000200000002DE9F047C6
:100570004FF0000A89460446C0F820A02046E168F2
:100580008847002876D0252806D0D4E90121904755
:10059000206A401C2062F1E7E16820460025884778
:1005A000C4F81CA006460027C4F818A02A2E09D0BB
:1005B000304606F05FFF38B304EB8708303EC8F8DA
:1005C000186019E059F8041B204604EB870291617A
:1005D000E1688847012F064618D1E069002820DA33
:1005E00025F020051DE0D8F8180000EB800006EB90
:1005F00040003038C8F818002046E16888470646B1
:1006000006F038FF0028EED1012F0AD02E2E08D197
:100610002046E16888477F1C0646022F45F02005EA
:10062000C4DBA069002803DA404245F00105A0615F
:10063000E80701D025F01005B6B1A6F14100192850
:1006400002D8203645F400654A46314620462560EA
:100650004D46FFF7FBFD58B1012806D0ED1D25F0F2
:10066000070000F1080989E704E005F1040985E7BE
:1006700030468AE7206ABDE8F08710B5431C02E0E7
:1006800010F8011B71B18107FAD14FF0013202C895
:100690008C1A8C4314EAC211F9D0C01A0A0603D08E
:1006A000C01E10BDC01A10BD0A0401D0801E10BDAE
:1006B0000902FCD0401E10BD02F0FF0343EA0322F2
:1006C00042EA024200F00FBB4FF0000200B51346B1
:1006D00094469646203922BFA0E80C50A0E80C5062
:1006E000B1F12001BFF4F7AF090728BFA0E80C5013
:1006F00048BF0CC05DF804EB890028BF40F8042B0C
:1007000008BF704748BF20F8022B11F0804F18BF78
:1007100000F8012B704770477047704700487047DA
:1007200038630020704770477047704738B50446FB
:100730000A4600206946AFF30080002808BF38BD94
:1007400002460099204600F0FBFA012038BD012046
:1007500000F008BCF8B5AFF30080054600200C4659
:10076000102000BF0646A819A0420DD9324669469E
:100770000020AFF30080070008BF00F0F3FB0098F3
:10078000A04218BF0546C419FFF7C8FF0560074619
:10079000F01D20F007004619284600F00AF8B44280
:1007A00008BFF8BDA21B31463868BDE8F84000F02C
:1007B000C7BA00210160C0E90110704710207047DE
:1007C00010B500F0B9FA006810BD10B5044600F08D
:1007D000B3FA046010BD2DE9F0470D4699469246E4
:1007E000044600F124080168880604D5E06921F078
:1007F0001001216000E00120A84201DD471B00E05C
:100800000027A1697A1902EB0900081AA061207873
:10081000C00602D42046FFF745FE002608E0D4E9D2
:1008200001211AF806009047206A401C761C2062BD
:100830004E45F4DB2078C0060AD52046FFF732FE8D
:1008400006E0D4E9012130209047206A401C206254
:10085000381EA7F10107F4DC07E0D4E9012118F8FC
:1008600005009047206A401C2062281EA5F1010562
:10087000F3DC2046FFF72CFE2078000602D502208C
:10088000BDE8F0870120FBE770472DE9FF4F0C46DC
:100890001E464FF0FF378BB0D2E90001DDF86080D3
:1008A0000A908A46C1F30A5505B93D46002108461B
:1008B0004FF00000BAF1000F00F4400005DA00EB41
:1008C00080004FF4400101EA50004FEA9059B9F11D
:1008D000010F00DDB9460A9850EA4A000ED044F6EE
:1008E0001050A5F2FF3545432F14B8F1000F1ED06C
:1008F0007542291E1EDDC9F100021CE0B8F1010F8E
:100900004FF0000001D0302103E0F24305E0215414
:10091000401CB042FBDB30460022002121540B99E1
:10092000C1F80880C1E900200FB0BDE8F08FBD1B01
:100930006D1CDEE74A4600DA694206A800F0A0FA1C
:1009400006AB93E8070003AB83E8070050460A991B
:1009500000F0D2FB8DE80700A0F500501F38009092
:100960000398002D0ADD42F21F014A460844002385
:1009700003A90390684600F03BFE09E0A0F5005093
:100980004A461F38002303A90390684600F045FE3D
:100990008DE807000004000C03D04FF0FF30410841
:1009A00000E01046B8F1000F03D000220092154677
:1009B0001EE0751E05D400F0DDF9303262556D1E63
:1009C000F9D5B3460122084302D000227F1C04E07F
:1009D0002078302801D100227F1E002A099784D078
:1009E0001DE0112D07DA00F0C5F9303262556D1C9B
:1009F00050EA0102F5D1084302D00098C8B10EE0D8
:100A00000021681E05E0235C625C63542254401E92
:100A1000491C8142F7DBAB46A81B401E0990002011
:100A200004F80B000B98099AC0F80880C0E9002B65
:100A30007AE711264FF0000857E72DE9F04F884676
:100A40000446D21D22F0070191B0D1E90001CDE9A1
:100A50000A0106F07CF902460B98C00F01D02D2048
:100A600007E02068810701D52B2002E0202101EA60
:100A7000C000032A099001D0072A05DB034641463E
:100A8000204600F0BDF90BE12078800601D5E06931
:100A900000E00620B8F1650F814606D0B8F1660F78
:100AA00018D0B8F1670F70D131E00020B9F1110F03
:100AB000009001DB112301E009F101030AAA01A959
:100AC0000CA8FFF7E2FEDDE90C70002609F1010534
:100AD000834647E001204B4600904FF000470AAAAA
:100AE00001A90CA8FFF7D1FEDDE90DB00C995D4618
:100AF000002610B909F101000D18B9EB050003D467
:100B0000C0F1FF3609F10105A5EB09002BE0B9F1B1
:100B1000010F01DA4FF001090020B9F1110F009027
:100B2000484601DD112300E003460AAA01A90CA8EA
:100B3000FFF7ABFEDDE90C704D46002683462078BA
:100B400000070AD4AB4500DA5D4601A8012D04DD9B
:100B5000411911F8011C302907D04F4502DA17F16D
:100B6000040F04DA012082460FE06D1EEEE7002F2D
:100B700002DCED1B3E4403E0781CA84200DD7D1C36
:100B8000B81B00F1010A4FF000472078000703D49A
:100B9000AA4501DB4FF0FF3A0021B7F1004F0DF1FC
:100BA00043088DF8431024D002202B23002F01DAB4
:100BB0007F422D230A21021EA0F1010000DC5FB15B
:100BC00097FBF1FC97FBF1F201FB1C7C17460CF143
:100BD000300C08F801CDEEE7A8F101000370218880
:100BE000090501D5452100E06521A0F1010800F8C3
:100BF000011C09980FA9A1EB0807FF1D00B10120F6
:100C0000411901EBEA70A1693844081A401EA0613D
:100C10002078C00602D42046FFF744FC099828B18A
:100C2000D4E901219047206A401C20622078C00648
:100C300022D52046FFF736FC1EE0002E04DBB3452C
:100C400002DD01A8805D00E03020D4E90121904759
:100C5000206A401C2062761CAAF101005FEA000AAB
:100C60000AD100F065F8C0680168405CD4E9012150
:100C70009047206A401C2062281EA5F10105DCDC9B
:100C800007E0D4E9012118F8010B9047206A401CC5
:100C90002062381EA7F10107F3DC2046FFF718FC9D
:100CA000032011B041E6000001694A1C0261087886
:100CB000704700B58FB0CDE901310021059105499C
:100CC0007944CDE9031011466846FFF74FFC0FB099
:100CD00000BD0000E5FFFFFF0A6802F8010B0A6093
:100CE00070474FF000020429C0F0128010F0030C8E
:100CF0003FF4ECACCCF1040CBCF1020F18BF00F8CF
:100D0000012BA8BF20F8022BA1EB0C01FFF7DEBCE2
:100D10005FEAC17C24BF00F8012B00F8012B48BF1B
:100D200000F8012B70470000004870473063002036
:100D3000004870475063002000487047306300202F
:100D4000034640688C46002818BF88423CBF0346D3
:100D50004068F8D318681844884207D00CF10300A3
:100D600020F00700001D411A521A0146081D0A60B2
:100D7000FFF7E5BA30B5B0F10A024FEA900E71F113
:100D800000034EEA817EB0EB0E0061EB91014FEA69
:100D9000101E4EEA017E10EB0E0041EB11114FEADE
:100DA000102E4EEA016E10EB0E0041EB11214FEABE
:100DB000104E4EEA014E10EB0E0041EB114140186F
:100DC00041F100014FEAD00040EA41704FEAD10101
:100DD00010EB80054FEA810444EA907444EB01046F
:100DE0006D1944EB0404521BA3414FF0000348BFAC
:100DF0000A3200D530BD401C41F1000130BD000079
:100E00002DE9F0411F46044603260168072A01F434
:100E1000006004DB08B116A505E016A503E008B1E3
:100E200015A500E015A521F010002060A069C01EE6
:100E3000A0610FB1401EA0612046FFF733FB4FB108
:100E4000D4E9012138469047206A401C2062C01C2A
:100E5000206206E0206AFAE7D4E9012115F8010BC7
:100E60009047761EF8D22046FFF732FBBDE8F081AE
:100E70004E414E006E616E00494E4600696E66003E
:100E80002DE9F047814616468AB0354878440DC8AA
:100E90008DE80D0032487844801C03AC0DC884E80E
:100EA0000D0041F69B300844372190FBF1F290FB96
:100EB000F1F5A5F1800501FB12041B3C02D564424B
:100EC000012000E00020DFF898A080460027FA44C7
:100ED000AAF1BE0A0EE0E0070AD03246684607EBE8
:100EE000470101230AEB810100F097FB8DE8070021
:100EF00064107F1C002CEED1194F7F44AE3F19E0E7
:100F0000E80715D007EB04100DF1180A90E80E0061
:100F10008AE80E00C068F04201D198190890324664
:100F2000012306A903A800F078FB03AB83E80700C0
:100F30006D10641C002DE3D14FF001033246694669
:100F4000B8F1000F03A802D000F052FB01E000F05E
:100F500064FBC9E90001C9F808200AB0BDE8F087C0
:100F600018DF000010B500F039F8BDE8104000F0BF
:100F70002FB870477546FFF7D7FEAE4605006946A5
:100F8000534620F00700854618B020B5FFF796F9C4
:100F9000BDE820404FF000064FF000074FF000087A
:100FA0004FF0000B21F00701AC46ACE8C009ACE8FB
:100FB000C009ACE8C009ACE8C0098D46704710B55F
:100FC0000446AFF300802046BDE81040FFF761B94A
:100FD000002801D000F06AB87047000010B5012861
:100FE00005D0002103A000F067F8012010BD09A181
:100FF000F8E7000053494752544D454D3A204F758C
:1010000074206F662068656170206D656D6F727900
:10101000000000003A2048656170206D656D6F72B8
:101020007920636F72727570746564004FF0013CD3
:1010300050F8042B51F8043B9A4221D1A2EB0C0347
:10104000934313EACC1317D150F8042B51F8043B07
:101050009A4215D1A2EB0C03934313EACC130BD1A4
:1010600050F8042B51F8043B9A4209D1A2EB0C032F
:10107000934313EACC13DBD04FF00000704700BF5E
:10108000D01A01BAB1FA81F101F0180122FA01F087
:10109000CB40C1F12001DBB2C0B2C01A2CFA01F37F
:1010A000D11A914311EAC311E6D1704701491820C2
:1010B000ABBEFEE72600020070B505460C460A20CE
:1010C00000E06D1C00F011F835B128780028F8D147
:1010D00002E0641C00F009F814B120780028F8D16F
:1010E000BDE870400A20AFF3008008B569468DF86E
:1010F00000000320ABBE08BD5FEA400C08BF91F0C2
:10110000000F4FEA8C234FEAC12243EA51514FEAC4
:101110001C5018BF00F5F0404FEA300018BF41F0F6
:1011200000415FEA6C5C00F02980BCF1FF3F08BF22
:1011300040F080407047130C06BF12044FF0100CB3
:101140004FF0000C130E04BF12020CF1080C130F29
:1011500004BF12010CF1040C930F04BF92000CF1B8
:10116000020CD30F04BF52000CF1010C11464FF0DA
:101170000002A0F11F00A0EB0C00704711F0004F1F
:1011800008BF704731F000413FF4D5AF0B0C06BFEC
:1011900009044FF0100C4FF0000C0B0E04BF0902B5
:1011A0000CF1080C0B0F04BF09010CF1040C8B0FA0
:1011B00004BF89000CF1020CCB0F04BF49000CF1F5
:1011C000010CCCF12003A0EB0C0022FA03F302FA8D
:1011D0000CF241EA030100F10100704720F07F4C5E
:1011E00080EA030023F07F47ACEB070303F57C5351
:1011F00000F0004003F1FF032DE980494FEA154B51
:1012000009B44FEA144325EA0B4E24EA03480FF2CF
:10121000042606EB132749083E785FEA320203FBF7
:101220000667C7F5000707FB06F64FEA54374FEA93
:10123000D64606F1020607FB066CCCF1005C4FEACD
:101240001C472CEA074C07FB06F40CFB06F504EBE5
:1012500015464FEA961634BF00204FF000404FEA83
:10126000D13706FB07FC4FEA1C4C0CFB0BF7D21BDB
:1012700003FB0CF761EB07010CFB0EF7B0EB07402B
:1012800072EB17420CFB08F734BFA2EB0742B2EB3C
:10129000074261EB17414FEA0C444FEA910706FB06
:1012A00007FC4FEA1C4C0CFB0BF7B0EBC74072EB92
:1012B000573203FB0CF734BFA2EBC742B2EBC74275
:1012C00061EB57310CFB0EF7B0EBC70072EB5772B6
:1012D0000CFB08F734BFA2EBC702B2EBC70261EB0D
:1012E0005771039F4FEA816141EA921104EBCC04EC
:1012F0004FEAD1374FEA826206FB07FC42EA9012BE
:101300004FEA80604FEA1C4C0CFB0BF7D21B03FB2F
:101310000CF761EB07010CFB0EF7B0EB074072EB2B
:1013200017420CFB08F734BFA2EB0742B2EB0742AF
:1013300061EB17414FEA8C554FEA910704EB9C246F
:1013400006FB07FC4FEA1C4C0CFB0BF7B0EBC7404D
:1013500072EB573203FB0CF734BFA2EBC742B2EB80
:10136000C74261EB57310CFB0EF7B0EBC70072EBD5
:1013700057720CFB08F734BFA2EBC702B2EBC702EF
:1013800061EB577115EB4C254FEA816141EA9211EF
:101390004FEA82624FEAD13742EA901206FB07FC1D
:1013A00044F100044FEA80604FEA1C4C0CFB0BF741
:1013B000D21B03FB0CF761EB07010CFB0EF7B0EB44
:1013C000074072EB17420CFB08F734BFA2EB074251
:1013D000B2EB074261EB174115EB1C154FEA813167
:1013E00041EA92414FEA823242EA90424FEA80302B
:1013F0004FEA0C7644F1000448EA03434EEA0B48F6
:101400004FF0000EB2EB080C71EB030724BF6246ED
:1014100039464EEB0E0E4FF0000B00185241494179
:101420004BEB0B0BB2EB080C71EB03077BF1000BE2
:1014300024BF624639464EEB0E0E4FF0000B0018EB
:10144000524149414BEB0B0BB2EB080C71EB03071C
:101450007BF1000B24BF624639464EEB0E0E51EA7B
:10146000020718BF46F0010616EB0E7655F1000292
:1014700054F1000103D5BDE88901BDE80088BDE84D
:101480008901BDE80048B619524141EB0101A3F1C1
:101490000103704780807F7E7D7C7B7A79787776C8
:1014A00076757473727171706F6E6E6D6C6C6B6A41
:1014B0006A696868676666656464636362616160DF
:1014C000605F5F5E5E5D5D5C5C5B5B5A5A5959585C
:1014D00058575756565555555454535352525251C6
:1014E000515050504F4F4F4E4E4D4D4D4C4C4C4B1C
:1014F0004B4B4A4A4A494949484848474747474663
:10150000464645454544444444434343434242429E
:1015100042414141002B9C4630D477002BD01CB572
:101520004FEA370703B44FF010004FF01001BAF143
:10153000000F06D0BCF1000FDCBF40F0080040F007
:1015400008014FF000000FBCBDE810400BF1010B8B
:10155000BBF1010F08BF5FEA170722BF12F10102BA
:1015600011F101014FF0004143F1000300F0004090
:1015700043EA00007047F9D35708D0E746EA064629
:1015800013F1400F4FEA16461FDD13F1200FDFBFA6
:1015900016430A46002120335B42BED0C3F1200728
:1015A00046EA064602FA07F74FEA164646EA0706F3
:1015B000C3F1200722FA03F201FA07F721FA03F137
:1015C0004FF0000342EA0702A7E746EA020646EAAE
:1015D00006464FEA164646EA0106BCBF46EA0646FC
:1015E000360C4FF000034FF000024FF0000194E77B
:1015F0002DE9804C9A46934670B491E8380007C8AC
:1016000031EA400C48BF34EA430C03D5FFF7E6FD4E
:10161000FFF780FFF0BCBDE8008C2DE9804C9A46B6
:10162000934670B491E8380007C810F0804F08BFA7
:1016300013F0804F03D100F005F8FFF76BFFF0BC0B
:10164000BDE8008C20F07F4780EA030023F07F4C48
:1016500007EB0C03A3F57C5300F00040A3F1FE035D
:1016600092F0000F00F0B38095F0000F00F077804B
:101670002DE901494FEA11404FEA144621EA00489A
:1016800000FB06FC24EA064708FB06F607FB08F801
:1016900000FB07F718EB06484CEB164C4FEA124BD1
:1016A00018EB07484FEA15464CEB174022EA0B4E61
:1016B0000BFB06FC25EA06470EFB06F607FB0EFEB3
:1016C0000BFB07F71EEB064E4CEB164C4FF00006DB
:1016D0001EEB074E4CEB174B18EB0B0840F10000CC
:1016E00018EB0E0B58EB000840F100008F1A4FF07A
:1016F00000013CBFC943661B14BFB5EB040C0021BD
:101700003CBFC943F61B4FEA17444EEA8E0E27EA48
:1017100004454FEA1C4704FB07622CEA074C05FB13
:1017200007F70CFB05F604FB0CFC16EB074642EB37
:10173000174216EB0C4642EB1C421BEB060658EB1D
:101740000202414146EA9E0601D5BDE80189B6196B
:10175000524141EB0101A3F10103BDE801894FEAC8
:1017600014454FEA114724EA054621EA074C05FBD8
:1017700007F406FB07F70CFB06F105FB0CFC11EB6D
:10178000074144EB17444FEA124711EB0C4144EB7D
:101790001C4422EA074C05FB07F206FB07F70CFB8B
:1017A00006F605FB0CFC16EB074642EB174216EB60
:1017B0000C4642EB1C456A1854F1000148BF7047C3
:1017C000B619524141EB0101A3F10103704795F0B5
:1017D000000F37D04FEA11424FEA144721EA024680
:1017E00024EA074C02FB07F106FB07F70CFB06F4A3
:1017F00002FB0CFC14EB074441EB17414FEA154781
:1018000014EB0C4441EB1C4125EA074C02FB07F5A5
:1018100006FB07F70CFB06F602FB0CFC16EB074673
:1018200045EB174516EB0C4645EB1C42121951F1DE
:10183000000148BF7047B619524141EB0101A3F1C5
:10184000010370474FEA14454FEA114724EA054661
:1018500021EA074C05FB07F106FB07F70CFB06F234
:101860004FF0000605FB0CFC12EB074241EB174161
:1018700012EB0C4251EB1C4148BF7047921841EBF0
:101880000101A3F10103704710B50124E1020348EF
:1018900000F0A2FB00B10024204610BD0000024071
:1018A000704700000146014801F0E6BF004C0020EF
:1018B00010B5044801F0F2FF042801D0012010BD4A
:1018C000002010BD004C002010B500F015F80128D4
:1018D00001D0012010BD074802F0F2F8040006D143
:1018E0004FF40061034801F07FFE00B1012420465F
:1018F00010BD0000004C002008B501208DF800004C
:10190000FFF7C2FF10B900208DF800009DF800001D
:1019100008BD0000134610B50A46014600240348DE
:1019200002F0D8F900B10124204610BD004C00207F
:10193000014901208860704778000020134610B5E7
:101940000A4601460024034802F064FA00B101246B
:10195000204610BD004C002001490120486070471E
:1019600078000020FEE70000014800F0BFB800004A
:10197000145F0020014800F0B9B80000745F002037
:10198000014800F0B3B80000F45D0020014800F009
:10199000ADB80000B45E0020014800F0A7B8000018
:1019A00034600020014800F0A1B80000D45F00209E
:1019B000014800F09BB80000545E00200168182325
:1019C000CAB2103AB2FBF3F2054B6FF30901032AD6
:1019D0009B5CC36500D9091D8165084670470000FE
:1019E00074E7000810B5014600208B698A6A4FF041
:1019F000C07453B1B3F5005F15D072B1012A0CD099
:101A0000022A0AD0032A09D104E01AB1012A06D019
:101A1000022A03D1C96AC90100D5012010BDC96AD3
:101A2000A142FAD010BD002AF7D0012AF2D0022A32
:101A3000F3D0032AF3D010BD30B50468256825F42F
:101A400080252560046863608368402B036803D0A9
:101A500099600068C26030BD9A600068C16030BDA6
:101A60007047102000F0D8B910B5202000F0D4F94C
:101A7000BDE81040802000F0CFB972B6FEE700222A
:101A8000AFF3008030B50E4B054601205C7A002C88
:101A900014D1587A1C54587A03EB800045605D7A63
:101AA00003F108002A54587A421C5A7230300870E8
:101AB0003A2048702F208870CC70002030BD000084
:101AC0002463002090F83510022903D0802141655D
:101AD00001207047052180F835100068016821F069
:101AE0000101016000207047406D70472DE9F84307
:101AF00004464FF00009CDF8009063484FF41651AA
:101B0000A56D0068B0FBF1F72E6894F85C10082012
:101B100000FA01F131420FD021680A6852070BD553
:101B20000A6822F004020A6094F85C108840A860F9
:101B3000606D40F00100606594F85C104FF00108A2
:101B400008FA01F0304208D021684969090604D535
:101B5000A860606D40F00200606594F85C1004209D
:101B60008840304208D021680968890704D5A860F8
:101B7000606D40F00400606594F85C1010208840AF
:101B8000304218D021680968090714D5A860206878
:101B90000168490304D50068000308D5A16C07E07B
:101BA0000168C90503D4016821F008010160216CB6
:101BB00009B12046884794F85C10202088403042C4
:101BC00031D021680968C9062DD5A86094F8350080
:101BD00005282068016806D0490347D5006800033E
:101BE0001DD4616C1CE021F0160101602068416980
:101BF00021F080014161206C08B9A06C20B12068FF
:101C0000016821F00801016094F85C103F208840D1
:101C1000A86084F8349084F83580216D1FE0E16B72
:101C200009B120468847606D00282BD0606DC00741
:101C300014D0052084F835002068016821F00101E6
:101C400001600098401C0090B84203D820680068EA
:101C5000C007F6D184F8349084F83580E16C00290F
:101C600010D001B02046BDE8F04308470168C9051F
:101C7000D5D4016821F01001016084F8349084F813
:101C80003580CCE7BDE8F883980000202DE9F041CD
:101C9000044600F0ABF906465CB1002584F83450E8
:101CA000022084F835002068016821F001010160FC
:101CB0000DE00120BDE8F08100F098F9801B0528B7
:101CC00005D920206065032084F83500F2E72068FC
:101CD0000068C007F0D12268116820480140D4E9AB
:101CE00001031843D4E903363343184363691843A7
:101CF000A3691843E3691843236A18430843616AD8
:101D0000042903D1D4E90B13194308431060206858
:101D10004069666A20F0070130460E430127042817
:101D20000CD1A06A0643E06A40B12046FFF75AFE94
:101D300020B14020606584F83570BAE720684661BC
:101D40002046FFF73BFE94F85C203F2191408160E4
:101D5000656584F835700020ACE700003F8010E036
:101D60002DE9F0410446866D90F8340000250128E5
:101D70000DD0012084F8340094F835700020012F34
:101D800007D084F8340002252846BDE8F0810220FF
:101D9000FBE7022784F8357060652046FFF74CFEAC
:101DA00094F85C103F208840B0602068016841F0E2
:101DB00016010160206C20B12068016841F0080123
:101DC00001602068016841F001010160DCE700006A
:101DD00070B5044600F00AF90546601C02D00448BC
:101DE0000078044400F002F9401BA042FAD370BD11
:101DF0008C0000200121074A202804D0102804D09C
:101E0000802804D004E0517002E0917000E0D170AD
:101E10001171704758000020044910B50A68024249
:101E200002D00860FFF7E6FF10BD0000143C01403F
:101E30002DE9F84F00224FF0010803254FF00F0E57
:101E40000B6808FA02F42340A3426ED14E68012EBB
:101E500005D0022E03D0112E01D0122E12D1866889
:101E60004FEA420C05FA0CF7BE43CF6807FA0CF7AD
:101E7000374387604668A6430C79C4F30014944046
:101E800034434460C668570005FA07FC8C6826EAAC
:101E90000C06BC403443C4604C68022C01D0122CA8
:101EA00013D1D40800EB8404A346D4F8209054073F
:101EB0004FEAD46A0EFA0AF629EA06090E6906FA0A
:101EC0000AF646EA0906CBF8206006680C7926EA8D
:101ED0000C0604F00304BC40344304604C68E40086
:101EE00060D5334C266846F480462660246822F08C
:101EF000030604F4804400942E4C3444A446D4F8E1
:101F000008489607370F0EFA07F6B4432A4EB04238
:101F100001D100261FE0294EB04201D101261AE06E
:101F2000274EB04202D1022615E03BE0254EB042DA
:101F300001D103260FE0244EB04201D104260AE06D
:101F4000224EB04201D1052605E0214EB04201D11A
:101F5000062600E00726BE402643CCF808681D4E42
:101F600034684F689C43FF0300D51C433460194E0E
:101F7000361D34684F689C43BF0300D51C43346052
:101F8000144E083634684F689C43FF0200D51C434A
:101F90003460104E0C3634684F689C43BF0200D545
:101FA0001C433460521C102AFFF44AAFBDE8F88F7E
:101FB000443802400030014000000240000402406A
:101FC00000080240000C02400010024000140240D1
:101FD00000180240003C01400069084000D0012088
:101FE00070470AB1816170470904FBE701488068C6
:101FF000704700008C00002070B5040025D094F8D4
:102000003D00002520B984F83C50204600F04CFAF1
:10201000242084F83D002068016821F0010101605E
:102020002068016841F4004101602068016821F4E2
:102030000041016001F0F0F84D4A6168914201D819
:102040004C4900E04C49884201D2012070BD4B4907
:102050002368B0FBF1F15E6826F03F060E435E6038
:102060006368934206D94FF4967359434FF47A73D9
:10207000B1FBF3F12368491C1E6A26F03F06314389
:1020800019626168914210D84900401EB0FBF1F21C
:10209000521CC2F30B02042A01D2042022E0B0FB3E
:1020A000F1F0401CC0F30B001CE0A268F2B301EB9E
:1020B000C10303EB0116431EB3FBF6F35B1C43F4B1
:1020C00080431B0549D092B301EBC10202EB011121
:1020D000401EB0FBF1F0401CC0F30B0040F4804008
:1020E00040F400402168CA694CF6FF739A431043DC
:1020F000C861D4E9071001432068026822F0C002D9
:1021000011430160D4E9030101432068826848F269
:10211000FF339A4311438160D4E9050108432168E4
:10212000CA6822F0FF021043C86001E00EE016E02A
:102130002068016841F0010101602564202084F8D5
:102140003D00256384F83E50002070BD01EB410640
:10215000431EB3FBF6F35B1CB3E70120C2E701EBC0
:102160004101401EB0FBF1F0401CC0F30B00B7E78B
:10217000A086010080841E0000093D0040420F003F
:102180002DE9FF4F83B09A46DDE911979346044647
:10219000DDF84080FFF72AFF054694F83D0020282F
:1021A00070D11923012271492046009502F0B2FD39
:1021B0000028F5D194F83C00012863D0012084F870
:1021C0003C0020680168C90703D1016841F00101A2
:1021D00001602068016821F400610160222084F818
:1021E0003D00402084F83E0000262664C4F8248088
:1021F000A4F82A90608D20855D48E062CDE90075E5
:1022000053465A462046049902F08CFC00287CD1A3
:10221000208DD0B1012821D00228206824D0416926
:1022200080690090208D032869D801282BD051495E
:1022300002283B464FF00002009559D088462046C0
:1022400002F068FD002860D13CE0206841698169A6
:102250000091016841F40071016077E02068016835
:1022600021F480610160F0E7016821F48061016080
:102270002068016841F4006101602068416980695B
:10228000009063E06FE02A463946204602F0C1FD27
:1022900098BB20680069616A08704EE02068016898
:1022A00041F40071016020680069616A0870606A29
:1022B000401C6062218D491E2185618D491E61850A
:1022C000216838E02068016821F48061016020689D
:1022D0000069616A0870606A401C6062208D401E5F
:1022E0002085608D401E60853B460022414600955A
:1022F000204602F00FFD00B9D0E706E0FFE72A46CE
:102300003946204602F085FD18B1012007B0BDE82E
:10231000F08F20680069616A0870606A401C606222
:10232000218D491E2185618D491E618521684A697B
:10233000D24352070AD409690170606A401C606286
:10234000208D401E2085608D401E6085208D0028D8
:102350007FF468AF202084F83D0084F83E6084F864
:102360003C600020D2E70220D0E70000020010000D
:102370000000FFFF040001002DE9FF4F83B09A46E3
:10238000DDE9119793460446DDF84080FFF72EFE05
:10239000054694F83D0020287FD1192301224049A9
:1023A0002046009502F0B6FC002876D194F83C0057
:1023B000012872D0012084F83C0020680168C90718
:1023C00003D1016841F0010101602068016821F436
:1023D00000610160212084F83D00402084F83E0027
:1023E00000262664C4F82480A4F82A90608D2085F5
:1023F0002C48E062CDE9007553465A4620460499C0
:1024000002F00EFC70B930E02A463946204602F050
:1024100033FD58B1206C042804D12068016841F4D0
:1024200000710160012007B0BDE8F08F606A21688B
:1024300000780861606A401C6062218D491E89B283
:102440002185628D521E628522685369DB435B07DA
:102450000BD469B100781061606A401C6062208D05
:10246000401E2085608D401E6085208D0028CBD1C8
:102470002A463946204602F027FC0028CAD154F8E3
:102480003D0B016841F400710160202004F81E0931
:10249000E67766770020C6E7FFE70220C3E7000083
:1024A000020010000000FFFF10B586B004461421A2
:1024B0006846FEF709F913492068884220D112487E
:1024C000016841F0020101600068694600F0020005
:1024D0000590C0200090122001900120029003205E
:1024E0000390042004900948FFF7A2FC064810302E
:1024F000016841F400110160006800F400100590CB
:1025000006B010BD005400403038024000040240C4
:102510002DE9FF4104460068816800917749784EB3
:102520004FF04027884201D1324600E03A46926897
:10253000019240688846029001D1304600E038465A
:102540004068039060684FF00105B0F5007F1CD033
:10255000D8B1900705D50398000602D5204602F0B1
:10256000E1FC0098C0070FD0029840067FD5216893
:102570002046CA68E16A8B1CE3620A80618E491EAC
:102580006186618E002967D071E00098800719D5B7
:102590000298000616D5616A20468A1C626222688B
:1025A0000988D160618D491E6185618D51B90168CD
:1025B0004A6822F0A0024A60418E19B980F8415061
:1025C00000F0A0F80198C00705D00398400602D596
:1025D000204602F077FC0198400622D50398800639
:1025E0001FD52168414501D1304600E0384640689A
:1025F00020F0600101D1304600E03846416020689B
:10260000416821F0A00141602068C16880680190A4
:1026100084F84150606C40F002006064204600F095
:1026200072F80098000767D50298800664D5206884
:10263000416821F0A00141602168414501D1304647
:1026400000E03846406820F0600000D03E467060F0
:1026500020688068009043E001684A6822F06002C8
:102660004A60418D19B980F8415000F04BF800984C
:1026700040061ED5029880061BD52068416821F0CF
:10268000600141602168414501D1304600E0384693
:10269000406820F0A00101D1304600E0384641609A
:1026A00084F84150606C40F002006064204600F005
:1026B0002AF8019800071FD5039880061CD52168C9
:1026C000414501D1304600E03846406820F0A00086
:1026D00000D03E4670602068416821F06001416092
:1026E00084F84150606C40F00400606404B02046FF
:1026F000BDE8F04100F007B8BDE8FF8100380040B8
:1027000000340040704770472DE9F047040005D0C1
:1027100094F841004FF0000918B109E00120BDE82C
:10272000F08784F840905B486063204600F0BCF876
:10273000022784F841702068C16940F6BF7821EA19
:102740000801C161206807626069534D4FF4007A47
:10275000022837D0E06860B12026A068202800D881
:1027600076002068A84202D04C49884203D101205B
:1027700002E01026F1E7022000F08AFA21695145B3
:102780001DD1E16809B1B10000E0F100B0FBF1F04A
:1027900000EB800061694000B0FBF1F0401D0A21B0
:1027A000B0FBF1F000F00101401A40080902821E5E
:1027B000FE2A09D3606C40F010006064AEE7B0FB05
:1027C000F6F0E5E702200021226908430243206871
:1027D0000262D4E901100143A269E0681043226853
:1027E0000143D36923EA0803194341F40061D1612D
:1027F000A168302901D0B02904D12168CA6942F406
:102800008052CA61216A012939D12549616323684F
:1028100024494FF04022AB4201D10B4600E0134661
:10282000DB6923EA080301D1084600E01046C361D2
:102830002068A84201D1084600E0104607622368DC
:10284000AB4201D1084600E01046C06986B260681C
:1028500050451BD0D0B100202789B4F80CC047EAFE
:102860000C07B4F818C04CEA000C47EA0C07B8B2E1
:10287000304340F40060AB4200D01146C861C4F858
:102880004490012084F84100002048E74FF4807014
:10289000E2E70000DB4F000800380040003C004049
:1028A0001125000800340040F0B59DB00646142103
:1028B00016A8FDF709FF58216846FDF705FF2D49C9
:1028C0003068884254D10224E0060890009468469B
:1028D00000F04CFA08B1FFF7D0F82748002501684E
:1028E00041F4005101600068234900F4005014399C
:1028F0001B90086840F001000860086800F00100C3
:102900001B90086840F0020008600868169400F008
:1029100002001B900520CDE919500127CDE917478A
:1029200016A91648FFF784FA16A94FF4405081E81B
:1029300091000620CDE919501148FFF779FA124CA1
:1029400010482060C005C4E901054014C4E90350E3
:10295000400060618000A0614011C4E90705204685
:102960006562FFF793F908B1FFF787F8F463A66390
:102970001DB0F0BD00340140443802400000024068
:102980000004024010640240F45D0020F8B50446E3
:1029900081B17AB194F84000012809D0012684F869
:1029A000406094F841000025012805D084F840508B
:1029B0000220F8BD0120F8BD042084F841006564C0
:1029C000E1622068C06900F00700032813D00528E1
:1029D00011D022866286E16B1E480864E16B1E48B6
:1029E000C863E16B1D48C8642168C869C0F3012051
:1029F000032807D009E04FF6FF7000EA4200208666
:102A00006086E8E7C86888680090238E0C31E26A27
:102A1000E06BFFF7A5F940B154F8440F40F008000F
:102A200044F8040966702570C4E72068C169490547
:102A300003D4C16941F48061C16120684168C9075C
:102A400003D1416841F00101416084F84050002009
:102A5000F8BD0000D14F0008AD4F0008854F0008B9
:102A6000014901200872704758000020034801887E
:102A7000034841810121C17170470000F44D0020DD
:102A8000580000207047000070B5040011D0216884
:102A90004CF6CC400860216845F255500860D4E9F6
:102AA000000141602168A0688860FFF79FFA054631
:102AB00009E0012070BD00BFFFF798FA401B3028E5
:102AC00001D9032070BD2068C0680028F4D12168B6
:102AD0004AF6AA200860002070BD00684AF6AA21C4
:102AE00001600020704700000248816802781144AC
:102AF000816070478C0000200B4810B5016841F4DC
:102B000000710160016841F480610160016841F475
:102B100080710160032000F089F80F2000F006F8B2
:102B200000F03EF8002010BD003C024010B5014608
:102B300088B00022192000F059F8192000F048F858
:102B400013480024016841F001010160006805A9F3
:102B500000F001000690684600F03EFB00F06CFBC0
:102B60000C490D4AB0FBF1F10C48491E026040F2DD
:102B7000E732C0E90324C0E9011401F087FD10B178
:102B8000012008B010BD054801F0CEFDF9E70000B6
:102B90004438024040420F00000001409460002091
:102BA0000A4808B5016841F480410160006800F4FA
:102BB000804000900548001F016841F0805101608D
:102BC000006800F08050009008BD000044380240CA
:102BD000002809DB00F01F0201219140400980001C
:102BE00000F1E020C0F8001170470000F0B40E4B77
:102BF0001B680C46C3F30223C3F10705042D00D95B
:102C00000425191D072901D2002300E0DB1E01263F
:102C100006FA05F1491E214099409E40761E164055
:102C20003143F0BC04F0BEB80CED00E0064900F002
:102C3000070208684FF6FF03184040EA0220034AE3
:102C400010430860704700000CED00E00000FA053A
:102C500002494A6882434A607047000000700040A1
:102C600002494A6802434A60704700000070004011
:102C70000548016841F0020101600448016841F023
:102C80000401016030BF70470070004010ED00E0AB
:102C9000F0B5324A314907460020304E304D314CB4
:102CA000314B083A8839012F0FD0022F1ED13668D8
:102CB00016F0C05643D0B6F1006F18D0B6F1805F61
:102CC00029D0B6F1C05F11D10CE0366816F0C066AD
:102CD00035D0B6F1007F0AD0B6F1806F1BD0B6F1C7
:102CE000C06F03D10868400227D52046F0BD2846B2
:102CF000F0BD08684002106800F03F0028D5B4FB22
:102D0000F0F01168C1F3881141431068C0F30270FC
:102D1000B1FBF0F0F0BD08684002086800F03F0029
:102D200019D5B4FBF0F00A68C2F388124243086870
:102D3000C0F30270B2FBF0F0F0BD1846F0BD1068B1
:102D40004002D6D5106800F03F00B5FBF0F0D8E7A0
:102D5000B3FBF0F0D5E7B3FBF0F0E4E78C380240CA
:102D60000080BB0040787D010024F4002DE9F84F7D
:102D7000044600780027C34DC00708D02868E169E1
:102D800020F0C06008432860E06900B9012720787E
:102D9000800708D52868216A20F0C05008432860C1
:102DA000206A00B90127208881046FF0FF0015D543
:102DB0002968A26C21F4401111432960A16C19B15A
:102DC000B1F5001F02D009E0012707E02968626918
:102DD00021F4F85100EB02221143296021884904B3
:102DE00015D52968E26C21F4400111432960E16C9A
:102DF00019B1B1F5000F02D009E0012707E02968F9
:102E0000626921F4F85100EB022001432960207827
:102E10004FF00009000755D59A484C38016841F039
:102E2000805101600068DFF8608200F080500090FF
:102E3000D8F8001041F48071C8F80010FFF7D6F8F8
:102E4000064604E0FFF7D2F8801B02286FD8D8F8B6
:102E50000000C005F6D58B4E1C3E306810F4407063
:102E60001FD0A18C01F4407181421AD03068012238
:102E700020F4407185480260C0F8009031603068ED
:102E8000C0070ED0FFF7B2F8804641F2883A05E05D
:102E9000FFF7ACF8A0EB0801514548D8306880072F
:102EA000F6D5616A7748C1F301228438032A36D007
:102EB000016821F4F81101603068A18CC1F30B01A5
:102EC000084330602078DFF8C8A1400703D594F8A4
:102ED0005410CAF8E01120786E4EC00605D530684F
:102EE000E16A20F440000843306020784FF0006829
:102EF000800609D53068216B20F0006008433060FF
:102F0000206B404500D101272078400605D5306868
:102F1000A16A20F080500843306067B908E0026879
:102F20005D4B22F4F81219400A430260C4E773E0D3
:102F30002068802877D1DFF864B1CBF86890FFF77C
:102F400055F8504F81468C3F06E000BFFFF74EF822
:102F5000A0EB090002285FD838680001F6D4216D83
:102F6000CAF8D81020684E49C20701D0E2697AB188
:102F7000820701D5226A5AB1820602D5226B4245E8
:102F800006D040060FD5A06A68B9206B40450AD12B
:102F9000D4E9010240EA8210227B237C120642EA35
:102FA0000372104308602068820401D5A26C1AB134
:102FB000400415D5E06C98B90868D4E9012342EAC9
:102FC0008312C0F30360237C000640EA03700243CF
:102FD0000A602868A26920F01F00521E1043286072
:102FE000207800060AD5D4E9010240EA8210227B4B
:102FF000237C120642EA0372104308600120CBF8DA
:103000006800FEF7F3FF80460AE000BFFEF7EEFF20
:10301000A0EB0800022803D90320BDE8F88F02E0E6
:1030200038680001F2D52088C00505D52868616B95
:1030300020F00040084328602088800505D52868D6
:10304000A16B20F40040084328602088400505D586
:103050002868E16B20F000400843286020880005C4
:1030600005D52868216C20F480400843286020881A
:10307000C00405D53068616C20F0404008433060E2
:103080000020CAE78C38024000700040400E4742E2
:103090000010474294380240FFFCFF0F00004742F7
:1030A000843802402DE9F0470E46050065D0DFF870
:1030B0001481D8F80000F7B200F00F00B04207D238
:1030C00088F80070D8F8000000F00F00B04254D12A
:1030D00028683D4C810712D5400703D5206840F48D
:1030E000E05020602878000703D5206840F4604055
:1030F00020602068A96820F0F0000843206028784C
:10310000C0072DD0304968680839012812D002283C
:1031100013D0032811D00968890700292DDA216806
:1031200021F0030101432160FEF760FF814641F277
:10313000883A0EE009688903EFE709688901ECE73E
:10314000FEF754FFA0EB0901514502D90320BDE869
:10315000F0872068696800F00C00B0EB810FEFD1B8
:10316000D8F80010404601F00F01B14207D90770AE
:10317000006800F00F00B04201D00120E7E7287896
:10318000400705D52068E96820F4E0500843206036
:103190002878000706D52068296920F4604040EAB5
:1031A000C100206000F058F82168084AC1F30311FB
:1031B000515CC8400649086006480068FFF7B6FC45
:1031C0000020C4E7003C0240083802407CE70008C9
:1031D00098000020900000200F2202600C4A136823
:1031E00003F003034360136803F0F0038360136884
:1031F00003F4E053C36012684FF4E05303EAD202D1
:1032000002610448006800F00F0008607047000089
:1032100008380240003C024004480549006809683B
:10322000044AC1F38221515CC840704798000020D5
:10323000083802408CE7000804480549006809681E
:10324000044AC1F34231515CC840704798000020E5
:10325000083802408CE70008154810B5006810F0E7
:103260000C02144813D01449042A0FD0082A0ED196
:103270000F4C241F2268236802F03F025B0207D52F
:103280002068C0F38810A0FB010106E0084610BDCD
:103290002168C1F38811A1FB00010023FDF776F836
:1032A0002168C1F30141491C4900B0FBF1F010BD98
:1032B000083802400024F40040787D012DE9F84FE1
:1032C00005460078DFF800B3C04CC0074AD0DBF8F1
:1032D00000105846C1F38101012908D00068C0F3ED
:1032E000810002280AD1201D0068400206D520680E
:1032F000800337D56868002872D033E06868B0F57D
:10330000803F10D0B0F5A02F206810D020F480307E
:103310002060206820F4802020606868A8B1FEF753
:1033200065FE06460DE0206840F48030F4E740F486
:1033300080202060F7E700BFFEF758FE801B64285E
:103340006FD820688003F7D50CE0FEF74FFE0646E5
:1033500005E000BFFEF74AFE801B6428F0D8206815
:103360008003F7D42878DFF8688280074FF00009DF
:1033700040D5DBF80010584611F00C0F09D000685A
:10338000C0F3810002280BD18F48001F0068400263
:1033900006D42068800715D5E868012820D111E0FF
:1033A000E868B8B10120C8F80000FEF71FFE064625
:1033B00005E000BFFEF71AFE801B0228C0D8206877
:1033C0008007F7D52068296920F0F80040EAC1009D
:1033D00020600FE0C8F80090FEF708FE064606E001
:1033E000EFE000BFFEF702FE801B022819D820681C
:1033F0008007F7D42878000722D5734E754869698D
:103400006C3679B101210160FEF7F0FD074604E05A
:10341000FEF7ECFDC01B022803D830688007F7D503
:103420000EE089E0C0F80090FEF7E0FD074604E0FA
:10343000FEF7DCFDC01B02287ED830688007F7D479
:103440002878400768D5DFF880A100270AF1380AFC
:10345000DAF80000C0000BD4DAF8001041F0805117
:10346000CAF80010DAF80000012700F08050009040
:10347000594E3068C00510D4306840F48070306018
:10348000FEF7B4FD009005E0FEF7B0FD0099401A8C
:10349000022851D83068C005F6D54B4EA86868366A
:1034A00001280FD00528306810D020F001003060CE
:1034B000306820F004003060A868B8B1FEF796FDCF
:1034C00000900FE0306840F00100F4E740F00400A5
:1034D0003060F7E7FEF78AFD0099411A41F2883023
:1034E000814266D830688007F4D50EE0FEF77EFD95
:1034F000009007E0FEF77AFD0099411A41F288300A
:10350000814256D830688007F4D42FB1DAF8001021
:1035100021F08051CAF80010A869D0B3DBF8001080
:10352000C1F3810102294CD00228484607D0C8F8CF
:103530006000FEF75BFD00E03BE005463CE04746EF
:10354000C8F86000FEF752FD064604E0FEF74EFDA7
:10355000801B02282DD820688001F7D4F5E90701E7
:103560000843E9681D4A490802EB0141AA6841EA9B
:1035700082110843297C40EA0160297D40EA0171FB
:103580001148001F016001203866FEF72FFD054637
:1035900005E014E0FEF72AFD401B022809D8206848
:1035A0008001F7D50BE000BFFEF720FD401B02288D
:1035B00002D90320BDE8F88F20688001F4D40020F0
:1035C000F8E70120F6E70000083802400038024022
:1035D00000004742800E4742007000400000FFFF9D
:1035E00010B5FEF75DF910BD2DE9FE43044603203A
:1035F0000F4684F83400606C03285AD0B7F5805F1A
:1036000057D04FF4006600254FF08068B7421CD1B8
:10361000009501950021206802F071F8800121D405
:103620006946204602F058FC98BB0198400332D509
:10363000B4F850000104206802F09CF848BB022155
:10364000206822E0A06B284327E01FB1A06B40F068
:10365000006022E0009501950021206802F04FF8FB
:10366000800101D53546EDE76946204602F034FC7D
:1036700078B90198C0030ED5B4F850000104206851
:1036800002F078F828B90021206802F0C0F800287C
:10369000D8D00546D6E74546D4E7A063A06B012500
:1036A00058B121680C48886384F834500120BDE883
:1036B000FE83A06B40F08050EFE7211DD4E90506A2
:1036C0000EC90097CDE90106206802F021F884F8C0
:1036D00034500020EBE70000FF0540007047000079
:1036E000F0B5426E920F0A70426EC2F383624A7066
:1036F000426EC2F301628A70426E120CCA70B0F858
:103700006420120A0A7190F864204A71826E120DC8
:10371000CA80826EC2F303420A72B0F86820C2F314
:10372000C0324A72B0F86820C2F380328A72B0F8B0
:103730006820C2F34032CA72B0F86820C2F3003287
:103740000A7300264E73426C4FF40075012462B177
:10375000012A3AD0026847499163816B41F0805158
:10376000816380F834400120F0BDB0F86820C36E5A
:103770009205120D42EA93720A61C26EC2F3C262EE
:103780000A75C26EC2F302624A75C26EC2F3425239
:103790008A75C26EC2F38242CA75C26EC2F3C23269
:1037A0000A760A69521C42650B7E03F007039B1CD4
:1037B0009A4042650B7A03F00F0704FA07F383651A
:1037C0005B0A5A43C0E917250EE090F86820C36EE3
:1037D0009206920A42EA13420A610A69521C920254
:1037E0004265C0E91652056630F86C2FC2F380328C
:1037F00001F8192F0288C2F3C6124A70027802F04B
:103800007F028A704268D20FCA704268C2F3417266
:103810000A714268C2F382624A714268C2F38352FB
:103820008A714268C2F34052CA710E724268C2F392
:1038300000424A728288C2F3C0328A728288C2F31E
:103840008032CA728288C2F340320A738288C2F31D
:1038500000324A738288C2F381228A738288C2F35B
:103860000122CA730079C0F3460008744C7400202A
:10387000F0BD0000FF054000426C0A60826C4A60A7
:10388000C26C8A60026DCA60426D0A61826D4A61D3
:10389000C26D8A61006EC8610020704770B5044631
:1038A000B0F8500000250104206802F0BAF818B101
:1038B000A16B0143A16304E00021206801F01FFF18
:1038C0000546C5F3432070BD2DE9F843056B04465A
:1038D0000068416B09041CD529071AD5D4E90A569A
:1038E000002E14D00027206801F02CFF05F8010BF2
:1038F000010A05F8011B010C05F8021B000E361F1A
:103900007F1C05F8010C082FEDD3C4E90A56BDE869
:10391000F883416B4FF00006C90540F23A584FF06A
:10392000010743D5390281632068C16B4CF23A121A
:103930009143C1632068C16A21F00101C162280777
:103940001CD515F0220F09D0206802F09BF828B191
:10395000A16B0143A1632046FFF7C0FE2168C1F8B7
:10396000388084F834702663A80703D0204600F01E
:1039700049FACCE7204600F049FAC8E72806C6D540
:10398000A80609D5206802F07DF828B1A16B014393
:10399000A1632046FFF7A2FEA807B8D12068C16A3C
:1039A00021F00801C16284F83470E3E7416B4904F7
:1039B00023D5290721D5D4E90856002EA7D0002702
:1039C00015F8010B009015F8011B361F40EA012085
:1039D000009015F8021B40EA0140009015F8011C08
:1039E00040EA016000906946206801F0BEFE7F1C3D
:1039F000082FE5D3C4E9085689E7416B11F03A0F67
:103A000085D0416B890703D5A16B41F00201A16309
:103A1000416B090703D5A16B41F00801A163416B1C
:103A2000890603D5A16B41F02001A163416BC90652
:103A300003D5A16B41F01001A163C0F83880206864
:103A4000C16B21F49D71C163206802F01BF8A16B6A
:103A50000843A063280706D584F8347026632046FF
:103A6000FFF73CFE53E7280687D515F0300F0CD042
:103A7000E16B11480865E06BFEF724F80028BBD025
:103A8000E06BBDE8F84302F005BAA8070CD0216C42
:103A90000A480865206CFEF715F80028ACD0206CA9
:103AA000BDE8F84302F0CDB9A66384F8347026630C
:103AB0002046FFF795FD2AE7955E0008435E000863
:103AC00070B504000ED094F83400002518B925779D
:103AD000204600F03BF8032084F83400204600F034
:103AE0000BF808B1012070BDA5632563012084F89F
:103AF0003400002070BD0000FEB50025044676208D
:103B00000095CDE9015029460B460A46206801F090
:103B1000FFFD08B10120FEBD0B4E46F8A05F2068F6
:103B200001F008FE01253560204602F0B7FA20B901
:103B3000204602F03BFA0028EDD084F83450A16B07
:103B40000143A163E6E70000008025422DE9F04F24
:103B50009DB0054614216846FCF7B6FD582105A81E
:103B6000FCF7B2FD5449286888427CD14026B00554
:103B700005960F9005A8FFF7F9F808B1FDF77DFF4E
:103B80004E4800684D4940F400600860086800F441
:103B900000601B90494814380068484940F0010013
:103BA00014390860086800F001001B90086840F0B4
:103BB000020008600868012700F002001B904FF423
:103BC000507000900220CDE9010703200C24CDE9BC
:103BD000030469463A48FEF72BF9F80300900220E7
:103BE0000190002002900320CDE90304DFF8D48087
:103BF00069464046FEF71CF9302000900220CDE9CE
:103C000001070320CDE9030469464046FEF710F999
:103C10002E4C2D48FF06C4E900070020C4E90260CD
:103C20007E144FF4805830012661C4E905802020BD
:103C30004FF4403BC4E9070B042060624FF40019C5
:103C400003204FF4000AC4F83090C4E90A0A204661
:103C5000FEF71CF808B1FDF710FFEC631A48A563E6
:103C600048381B4C00E024E0C4E90007002004F1C0
:103C70000C01A06081E841014FF48040A061202048
:103C8000C4E9070B042060620320C4F83090C4E943
:103C90000A0A2046FDF7FAFF08B1FDF7EEFE2C6494
:103CA000002211463120A563FEF7A0FF3120FEF768
:103CB0008FFF1DB0BDE8F08F002C0140443802405A
:103CC0000000024000040240A0640240545E002054
:103CD000B45E00202DE9F04786B01F460446154625
:103CE00039B194F83400012807D0022006B0BDE8AD
:103CF000F087A06B40F0006008E00020A063E36D57
:103D0000EA199A4204D9A06B40F00070A0636EE0FB
:103D1000032284F8342022688246D0622268D36B62
:103D200043F49573D363236C324A4FEA4729DA632D
:103D3000236C314ADA64226C4FEA990310652068DB
:103D40000A46266C00F180013046FEF709F8DFF8DC
:103D5000AC80012660B12068C16B21F49571C1630C
:103D60002168C1F83880A06B40F08040A06311E06A
:103D700023480660606C012800D06D024FF400718A
:103D8000206801F02BFD40B12268C2F83880A16B99
:103D90000143A16384F8346029E04FF0FF30CDE99E
:103DA00000099020029002200596CDE9030AD14631
:103DB0006946206801F08DFC012F06D9822020631E
:103DC0002946206801F09EFD05E0812020632946F8
:103DD000206801F0B0FD002888D02268C2F8388041
:103DE000A16B0143A16384F83460C4F830900120D2
:103DF0007CE70000015E00089D5D0008FF054000B3
:103E00008C85254210B5FDF793FD10BD10B5FDF76B
:103E1000A3FD10BD2DE9F04F87B01F465FEA010BEF
:103E20000446164607D094F83400012807D0022033
:103E300007B0BDE8F08FA06B40F0006008E00025FF
:103E4000A563E16DF019884204D9A06B40F00070C1
:103E5000A0635FE0032084F834002068C562206816
:103E6000C16B41F01A01C163E16B3248C863E16B79
:103E70003148C864E06B0565606C012800D05602CB
:103E80004FF40071206801F0A9FCDFF8B0904FF00A
:103E9000010840B12268C2F83890A16B0143A163C8
:103EA00084F8348036E04FF0900A012F06D9A02024
:103EB00020633146206801F0FFFD05E0C4F830A022
:103EC0003146206801F011FE40B12268C2F83890F6
:103ED000A16B0143A16384F834801AE01848464678
:103EE000C0F8008022687F02BB0859468032E06B30
:103EF000FDF736FF80B12068C16B21F01A01C16364
:103F00002168C1F83890A06B40F08040A06384F82D
:103F10003460256301208BE74FF0FF30CDE90007C7
:103F2000CDE902A5CDE904566946206801F0D1FB30
:103F300000207DE7875E00089D5D0008FF054000CA
:103F40008C852542704790F85100704738B501685C
:103F500004464A688868C043430606D5C30704D1AF
:103F6000D3435B0601D4216C05E0830708D4D34317
:103F70001B0605D4616C01B02046BDE830400847FF
:103F8000830603D5430601D5C30551D4D3439B060D
:103F90004ED443060AD494F85130032B49D0636DB4
:103FA00043F004036365CB688B680093830609D4F0
:103FB000636D43F0010363658B6800930B6823F026
:103FC00040030B60C00506D4606D40F008006065DA
:103FD000206880680090606D002829D020684168C2
:103FE00021F0E0014160012084F85100900701D4E4
:103FF000D00722D02068416821F003014160114DB3
:10400000E06C40B10565E06CFDF75CFD18B1606DDA
:1040100040F040006065A06C002809D00565A06CE8
:10402000FDF750FD002803D0606D40F04000606552
:1040300038BDC8688868009038BD2046FFF782FF09
:1040400038BD0000C962000870B5040005D0002525
:10405000A56294F8510010B106E0012070BD84F80B
:104060005050204600F030F8022084F851002068BB
:10407000016821F040010160D4E901010843D4E95D
:1040800003121143084361690843218B01F4007155
:104090000843E1690843216A0843A16A084321688B
:1040A0000860A069042101EA1040616A08432168A0
:1040B00048602068C16921F40061C1616565012023
:1040C00084F85100002070BD2DE9F04F87B0044600
:1040D00014216846FCF7F8FA6748DFF898C12368AE
:1040E000022201260321DFF894810025071563458C
:1040F00063D1614B1033D3F800C04CF4804CC3F84B
:1041000000C01B6803F480430593036843F0020377
:104110000360036803F002030593036843F001039F
:10412000036000688A4600F0010005904FF4884063
:10413000CDE9000202AB4FF0050B83E8400C91463D
:1041400069464046FDF774FE02AB694683E8400CC1
:10415000CDE900794A48FDF76BFE4B4E4948C6E968
:104160000005B560C6E903577561B561F561356253
:1041700030467562FDF78AFD08B1FDF77EFCE66406
:10418000B4634048414E1830E6E802054020A1C61D
:104190003E4846F81459B561F56135627562FDF720
:1041A00075FD08B1FDF769FCA664002211462420C4
:1041B000B463FEF71BFD242057E0DFF8D4C063454D
:1041C00055D12D4B1433D3F800C04CF4801CC3F8E8
:1041D00000C01B6803F480130593036843F00203D7
:1041E0000360006800F00200059040F201108DE8C5
:1041F00045000620CDE9031069464046FDF718FE4C
:10420000254E244830604FF06060C6E90105C6E9DC
:1042100003577561B561F561356230467562FDF72A
:1042200035FD08B1FDF729FCE664B46319481B4E5F
:10423000183806F1080130604FF08060706040204F
:1042400081E8A1007561B561F5613562304675623E
:10425000FDF71CFD08B1FDF710FCA6640022114615
:104260005520B463FEF7C2FC5520FEF7B1FC07B041
:10427000BDE8F08F003800403038024000040240B2
:104280000000024058600240145F0020745F00206C
:104290000050014088640240D45F00203460002058
:1042A000704770472DE9F84F044690F850000027FA
:1042B0001D461646894601280DD04FF0010B84F8A3
:1042C00050B0FDF793FE804694F85100BA4601289D
:1042D00004D002278EE00220BDE8F88FB9F1000F6C
:1042E0007DD0002E7BD0032084F85100C4F854A068
:1042F000C4F83090A686E686C4F838A0A4F83CA09E
:10430000A4F83EA0C4F844A0C4F840A0A068B0F54A
:10431000004F04D12068016841F4804101602068A9
:104320000168490603D4016841F040010160E0687A
:10433000B0F5006F606803D030B3012E24D040E0A8
:1043400008B1012E1CD1206B21680088C86006E0EE
:1043500020688168890709D5216B0988C160206BB5
:10436000801C2063E08E401EE08609E0FDF73EFEE3
:10437000A0EB0800A84202D3681C01D031E07DB355
:10438000E08E0028E4D11FE0206B216800780873DC
:1043900006E020688168890709D5216B09780173D7
:1043A000206B401C2063E08E401EE08609E0FDF794
:1043B0001DFEA0EB0800A84202D3681C01D010E04B
:1043C00075B1E08E0028E4D142462946204602F02D
:1043D00065F808B120206065A06820B107E008E01A
:1043E000FFE7032706E02068C16880680090606DE1
:1043F00000B1012784F851B084F850A038466BE72B
:104400002DE9F041044690F85000002601280DD017
:10441000012784F8507094F851000025D4F804C0A6
:1044200001280FD0BCF5827F0AD102E00220BDE84E
:10443000F081D4F808C0BCF1000F01D1042801D0EC
:10444000022660E049B342B33BB394F8510004281C
:1044500002D0052084F8510065652163A386E386B8
:10446000A263A387E3872564656494F85100042858
:1044700015D0E16C264808642648E16CC863E16CFD
:104480002548C864E06C0565E38F2168A26B0C3198
:10449000E06CFDF765FCE0B906E0012633E0E16C75
:1044A0001E4808641E48E8E72068416841F00101A1
:1044B0004160A06C0564A06CC563A06CC564A06C71
:1044C0000565E38E2268216B0C32A06CFDF748FC79
:1044D00038B1606D40F010006065012684F85170BD
:1044E00011E020680168490603D4016841F04001E9
:1044F00001602068416841F0200141602068416806
:1045000041F00201416084F8505030468FE70000CE
:104510000F630008E7630008D9620008FB62000827
:10452000196300082DE9F041044690F85000002678
:10453000012809D0012784F8507094F85100002513
:10454000012804D0022649E00220BDE8F08189B1AB
:1045500082B1032084F8510065652163A286E2865A
:10456000A56365642564A587E587A068B0F5004F5D
:1045700002D006E0012631E02068016841F4804164
:104580000160A16C17480864A16C1748C863A16C4E
:104590001648C864A06C0565E38E2268216B0C3256
:1045A000A06CFDF7DDFB38B1606D40F01000606578
:1045B000012684F8517011E020680168490603D48F
:1045C000016841F0400101602068416841F020012C
:1045D00041602068416841F00201416084F8505018
:1045E0003046B2E70563000883630008D96200081B
:1045F00070477047704770477047704770B590F8C4
:104600003C20012A32D0012480F83C40022280F86C
:104610003D2003685A689D6822F070060A6832439C
:104620005A60134B02689A4214D0B2F1804F11D0F5
:10463000104B9A420ED0104B9A420BD00F4B9A421D
:1046400008D00F4B9A4205D00E4B9A4202D00E4B27
:104650009A4204D1496825F080031943916080F89B
:104660003D40002180F83C10084670BD022070BD1E
:10467000000001400004004000080040000C004021
:1046800000040140004001400018004010B5040043
:1046900003D094F83D0010B107E0012010BD0020C8
:1046A00084F83C00204600F00DF8022084F83D001C
:1046B000211D206802F016FA012084F83D00002038
:1046C00010BD000008B5154A0168154891420ED189
:1046D000016841F0100101600068002200F0100044
:1046E000009011463620FEF781FA362010E00D4A80
:1046F000914211D1016841F020010160006800225F
:1047000000F02000009011463720FEF76FFA3720A6
:10471000BDE80840FEF75CBA08BD0000001000408C
:1047200040380240001400400168CA6842F00102AB
:10473000CA600068816801F00701062903D001689A
:1047400041F00101016000207047704770B50446D8
:10475000006801694FF00005C943890715D4C16895
:10476000C943890711D4E91E01610120207720681F
:1047700080698007204602D0FFF7E7FF04E000F0E1
:10478000C3F8204600F062F9257720680169C94323
:10479000490717D4C168C943490713D46FF004010E
:1047A0000161022020772068806910F4407F204654
:1047B00002D0FFF7CAFF04E000F0A6F8204600F0A0
:1047C00045F9257720680169C943090716D4C168EE
:1047D000C943090712D46FF0080101610420207752
:1047E0002068C0698007204602D0FFF7AEFF04E0D2
:1047F00000F08AF8204600F029F925772068016941
:10480000C943C90617D4C168C943C90613D46FF098
:1048100010010161082020772068C06910F4407FF2
:10482000204602D0FFF791FF04E000F06DF820462B
:1048300000F00CF9257720680169C943C90708D140
:10484000C168C943C90704D1891E0161204600F02F
:1048500021F920680169C943090609D4C168C9431F
:10486000090605D46FF0800101612046FFF7C4FE00
:1048700020680169C943490609D4C168C94349068A
:1048800005D46FF040010161204600F031F9206845
:104890000169C94389060BD4C168C943890607D495
:1048A0006FF0200101612046BDE87040FFF7A5BE12
:1048B00070BD000010B586B0044614216846FBF7B1
:1048C00003FF0E492068884216D10D480021026876
:1048D00042F001020260006800F00100059004202F
:1048E0000090022001900120CDE9020103200490F4
:1048F00069460448FDF79CFA06B010BD004001402F
:104900003038024000000240704770B5044690F80D
:104910003C000D4601280DD0012684F83C600220A1
:1049200084F83D0042B1042A18D0082A2AD00C2A63
:104930004DD139E0022070BD206802F045F92068B1
:10494000816941F0080181612068816921F00401D9
:104950008161206881692A69114311E0206802F0B1
:1049600063F92068816941F400618161206881698F
:1049700021F480618161206881692A6941EA02210C
:10498000816124E0206802F085F92068C16941F066
:104990000801C1612068C16921F00401C16120687A
:1049A000C1692A69114311E0206802F0A7F9206863
:1049B000C16941F40061C1612068C16921F480616D
:1049C000C1612068C1692A6941EA0221C16184F894
:1049D0003D60002084F83C0070BD10B5040003D099
:1049E00094F83D0010B107E0012010BD002084F8CC
:1049F0003C00204600F00CF8022084F83D00211D08
:104A0000206802F06FF8012084F83D00002010BDFE
:104A100008B500680B49884212D10B48016841F47F
:104A2000803101600068002200F48030009011465F
:104A30001820FEF7DBF8BDE808401820FEF7C8B8DC
:104A400008BD0000004001404438024070470000AB
:104A500010B504460068012202F0A8F80B4920684E
:104A6000884202D00A49884203D1416C41F4004196
:104A700041642068816801F00701062903D00168BC
:104A800041F001010160002010BD00000000014064
:104A90000004014070B5054600681049104C01261D
:104AA00088420DD1D4E90601401C41F100010D4AB4
:104AB0000023C4E90601FBF769FC1A4300D16671C3
:104AC00009492868884200D126700849884203D1E4
:104AD000BDE87040FEF708B870BD0000001000404F
:104AE00058000020C02709000014004000000140C9
:104AF0007047FEE701684A69D24352050FD46FF44C
:104B000080624A61002140F8301F20224273817385
:104B1000026942F004020261017301207047002023
:104B2000704700002DE9F84F0446006889460B9D48
:104B300001689846174641F4806101602068016869
:104B400041F48071016000954FF0011B002259462D
:104B500020460A9B00F0DEF84FF4007A40B120684E
:104B60000068C00501D5C4F840A00320BDE8F88F57
:104B7000216809F0FE0008612B46284920460A9A60
:104B800000F0FCF8F0BB20684169806900902A467B
:104B900020460A9900F070F940B1206C04283AD1FF
:104BA0002068016841F40071016034E0FEB2B8F1A0
:104BB000010F09D02168380A08612A4620460A995F
:104BC00000F05AF90028E8D1206806612A462046FC
:104BD0000A9900F051F90028DFD12068016841F4FA
:104BE0008071016000950022594620460A9B00F022
:104BF00091F80028B3D1216809F0FF0040F00100CE
:104C0000086100E007E02B46044920460A9A00F0BC
:104C1000B5F80028AAD00120A8E700000200010092
:104C20002DE9F843044600680D46DDE90897016860
:104C30009846164641F4807101604B4600224FF0C1
:104C400001112046009700F065F848B1206800681F
:104C5000C00502D54FF4007020640320BDE8F8833E
:104C6000216805F0FE0008613B464A46154920468A
:104C700000F084F888B920684169806900903A465C
:104C80004946204600F0F8F848B1206C042804D1C9
:104C90002068016841F4007101600120DEE7F5B28F
:104CA000B8F1010F09D02168300A08613A46494637
:104CB000204600F0E1F80028E7D1206805610020D7
:104CC000CCE700000200010070B516460D46044610
:104CD0000DE02046FFF70EFF08B1012070BD681CF3
:104CE00005D0FDF783F9801BA84207D835B12068AD
:104CF0004069C0434007ECD4002070BD002044F858
:104D0000300F20216173A073216941F020012161DE
:104D10002073E2E72DE9F0471E4690460D46044613
:104D2000C1F30747DDF8209008E0701C06D0FDF7BE
:104D30005DF9A0EB0900B0420FD876B12068012FD1
:104D400018D0806925EA00000004000C14D000216E
:104D50004145EAD00020BDE8F087002044F8300F3C
:104D600020216173A073216941F02001216120732A
:104D70000120F0E74069E5E70121E9E72DE9F04787
:104D80009A4691460E46044600254FF02008C1F38E
:104D9000074725E020684069C043400514D42068D7
:104DA000016841F40071016021686FF4806048611E
:104DB000256384F83D8084F83E50206C40F0040068
:104DC000206484F83C501FE0B9F1FF3F08D0FDF7A4
:104DD0000DF9A0EB0A0149450CD8B9F1000F09D033
:104DE0002068012F13D0806926EA00000004000C1F
:104DF0000BD0CFE744F8305F84F80D80A5732069AD
:104E000040F02000206125730120BDE8F087406953
:104E1000EAE72DE9F041002590460E46044620279A
:104E200017E04069C043C0060CD454F8301B6FF043
:104E30001000486144F810596777A577206A20620E
:104E4000257717E0FDF7D2F8A0EB0800B04208D8AC
:104E50003EB120684169C9434906E2D40020BDE85B
:104E6000F08144F8305F6773A573206940F020003B
:104E7000206125730120F2E770B516460D46044601
:104E80000DE02046FFF736FE08B1012070BD681C1A
:104E900005D0FDF7ABF8801BA84207D835B12068D4
:104EA0004069C0430006ECD4002070BD002044F8E7
:104EB000300F20216173A073216941F0200121612D
:104EC0002073E2E770B515490268154B4FF0402496
:104ED0008A4201D11A4600E02246D568C26A961C71
:104EE000C6621580428E521E4286428E002A14D11E
:104EF00002688A4201D1194600E02146496821F042
:104F0000600100D023465960418D002905D14FF042
:104F1000010180F84110FDF7F5FB70BD003800403D
:104F20000034004070B5416A144B8A1C4262056827
:104F30000988134A4FF040249D4201D1154600E0F4
:104F40002546E960418D491E4185418D002914D1D6
:104F50000168994201D1114600E02146496821F0DB
:104F6000A00100D022465160418E002905D14FF0AA
:104F7000010180F84110FDF7C5FB70BD003800400D
:104F80000034004010B5806B01684A6822F00302CB
:104F90004A60002141854186012180F84110416C21
:104FA00041F008014164FDF7AEFB10BD10B50146AC
:104FB000806BC96949B901684A6822F001024A60F8
:104FC00000214186012180F84110FDF749FD10BD07
:104FD00010B5806BFDF74AFD10BD7CB50168044635
:104FE0008868009094F841000125042834D1009885
:104FF000C00718D04868C043400614D4C96820468A
:10500000E26A1180E16A891CE162618E491E618653
:10501000618E41B901684A6822F060024A6080F8F6
:105020004150FDF71DFD0098400615D520684168E8
:10503000C943890610D4416821F0600141602068AD
:10504000C1688068019084F84150606C40F00200B3
:1050500060642046FDF757FB94F84100032834D1E3
:105060000098800719D521684868C043000614D409
:10507000626A20461288CA60616A891C6162618D19
:10508000491E6185618D41B901684A6822F0A0021C
:105090004A6080F84150FDF7F5FC0098000714D5F0
:1050A00020684168C94389060FD4416821F0A001F6
:1050B000416020688068009084F84150606C40F046
:1050C000040060642046FDF71EFB7CBD10B59FED1B
:1050D0000F1A2DED028BB0EE608AF0EE400A80EEE2
:1050E000810ADFED0B0A01F06DFEF7EE000A9FED7D
:1050F0000A1A30EEC00ADFED070A78EE200ABDEC8E
:10510000028B60EE200A80EE810A10BD00507D44C3
:10511000B7C9423E33938843F4FDD43B7CB540F09D
:1051200080008DF800000020124D8DF8010002462D
:105130004FF4804421462846FCF753FF0E48FEF703
:1051400002FF0128FAD1022301AA69460A48FFF7A3
:1051500057F908B1FCF791FC0748FEF7F4FE012867
:10516000FAD1012221462846FCF73BFF9DF80500B5
:105170007CBD000000080240844C002070B528204F
:10518000FFF7CCFF04462920FFF7C8FF05462A2079
:10519000FFF7C4FF000440EA0521214300EE101A86
:1051A000DFED030AB8EEC00A20EE200A70BD000051
:1051B0000000803910B52B20FFF7B0FF60F3070423
:1051C0002C20FFF7ABFF60F30F2420B200EE100A93
:1051D0009FED031AF8EEC00A80EE810A10BD0000B0
:1051E0000000C84210B51120042100F007F811207A
:1051F000FFF794FF4007FAD410BD000038B5124DF8
:105200008DF800008DF801104FF4804400222146F3
:105210002846FCF7E6FE0D48FEF795FE0128FAD178
:10522000022269460948FFF77DF908B1FCF725FC21
:105230000648FEF788FE0128FAD1012221462846B9
:10524000FCF7CFFE38BD000000080240844C00206F
:1052500010B50F20FFF762FFB32801D0FCF70DFC5B
:10526000FFF7C0FF0E201F21FFF7C8FF1020BDE889
:1052700010407C21FFF7C2BF1FB50C460A23022253
:1052800003A98DE80E00024601236C210648FCF7B5
:1052900077FF002806D19DF80C009DF80D1040EA1C
:1052A000012020801FBD0000584B002008B5694632
:1052B000DE20FFF7E1FFBDF90000C11700EB116030
:1052C000001200EE100AB8EEC00ABCEEC00A10EEE2
:1052D000100AC0B208BD00002DE9FF410646080AC9
:1052E0008DF80D008DF80C1003AF4FF47A70022585
:1052F0000097CDE901501446012332466C210D4838
:10530000FDF73AF8002812D10A200097CDE90150A4
:10531000012332466C210748FCF732FF002806D1F2
:105320009DF80C009DF80D1040EA01202080BDE89A
:10533000FF810000584B002038B5002000906946DE
:105340001820FFF799FF4FF4FA7469463A20FFF7E7
:1053500093FF4AF2615569461E20FFF78DFF6A46AA
:1053600090216020FFF7B8FF6A460021BA20FFF7BE
:10537000B3FF6A4600216020FFF7AEFF6A46214670
:105380001820FFF7A9FF6A4629463A20FFF7A4FF35
:105390006A4680211E20FFF79FFF6A464FF40041B6
:1053A000DB20FFF799FF6946DB20FFF765FFBDF8BB
:1053B00000000028F7D16A4648F20C71BA20FFF7C6
:1053C0008BFF00216A460846FFF786FF38BD0000C4
:1053D000254808B5016841F480010160016801F4C5
:1053E00080010091016841F4001101600068002211
:1053F00000F40010009011460E20FDF7F7FB0E2080
:10540000FDF7E6FB002211460F20FDF7EFFB0F2012
:10541000FDF7DEFB002211463820FDF7E7FB3820C0
:10542000FDF7D6FB002211463B20FDF7DFFB3B20BA
:10543000FDF7CEFB002211463C20FDF7D7FB3C20B8
:10544000FDF7C6FB002211464420FDF7CFFB4420A8
:10545000FDF7BEFB002211464520FDF7C7FBBDE866
:1054600008404520FDF7B4BB3038024010B5044970
:105470000448FCF704FB0249491E087010BD0000F7
:105480008500002060E700082DE9F04786B0142170
:105490006846FBF719F945480024016841F004010A
:1054A0000160016801F004010591016841F080018B
:1054B0000160016801F080010591016841F001017E
:1054C0000160016801F001010591016841F00201EC
:1054D00001600068DFF8D88000F002004FF48045DA
:1054E0000590002229464046FCF77BFDDFF8C4A06A
:1054F00041F20807002239465046FCF772FDDFF8FA
:10550000B8904FF40176002231464846FCF769FD19
:1055100000950125CDE90254694640460195FCF706
:1055200087FCE8038DE8310069464046FCF780FCC3
:105530000097CDE90154694650460394FCF778FC86
:10554000B02000901D48CDE9010469465046FCF7A3
:105550006FFC02200090CDE90104CDE903406946CB
:105560004846FCF765FC0096CDE90154694648467B
:105570000394FCF75DFCE8028DE831006946504673
:10558000FCF756FC002211460A20FDF72FFB0A20EB
:10559000FDF71EFB002211461720FDF727FB172001
:1055A000FDF716FB06B0BDE8F0870000303802407A
:1055B00000080240000002400004024000001110F8
:1055C000084810B5064901600421416040F6FF71AA
:1055D0008160FDF759FA002801D072B6FEE710BDD0
:1055E00000300040F44B00200F4810B50D49016019
:1055F0004FF482714160002102228160C0E90312F0
:1056000001224261520282610822C0E907214162FF
:1056100081620A21C162FEF717FD002801D072B62F
:10562000FEE710BD00380040844C00200F4810B544
:105630000D4901604FF4827141604FF40041816077
:105640000021C1604FF400720161C0E90512C1611F
:105650000162416281620A21C162FEF7F5FC002805
:1056600001D072B6FEE710BD00500140DC4C0020B6
:1056700010B588B01C216846FBF726F8124811497E
:10568000002401601F21C0E9011440F2E731C0E9A4
:1056900003148461FFF7A1F908B172B6FEE7602038
:1056A000CDE9000402940022694607480494FFF7FC
:1056B0002CF908B172B6FEE70348FFF7FBF808B013
:1056C00010BD000000400140B44D0020FEE7FEE7A1
:1056D00070470A6842624A688262D1E902231A432B
:1056E000D1E904310B43C16A1A4321F0F701114398
:1056F000C16200207047006800F003007047084452
:10570000406970470148FEF7DFB80000004C0020F8
:1057100070B50DF1100C11439CE870002343194340
:1057200029434268314347F6FF639A430A43426084
:10573000002070BD10B5032101600220FCF748FB7A
:10574000002010BDD0F8800070470A688260D1E95F
:1057500001231A43D1E903310B43C1681A436FF3A4
:105760000B011143C160002070470968C0F8801028
:105770000020704710B586B004463720CDE90010F0
:1057800040200290002003904FF48060049069460E
:105790002046FFF7DAFF41F288323721204600F039
:1057A000BDF906B010BD000010B504460A4886B029
:1057B00001432920CDE900104020029000200390F1
:1057C0004FF48060049069462046FFF7BEFF2046F4
:1057D00000F05CFA06B010BD0000108010B586B075
:1057E00004461020CDE900104020029000200390D4
:1057F0004FF48060049069462046FFF7A6FF41F20F
:1058000088321021204600F089F906B010BD10B58D
:1058100086B004460620CDE900104020029000200A
:1058200003904FF48060049069462046FFF78DFF97
:1058300041F288320621204600F070F906B010BD12
:1058400030B585B000240546009401944FF4806083
:105850000294CDE9034069462846FFF776FF0B48DE
:105860004FF4FA510068B0FBF1F041F2883148433F
:10587000401E03D24FF0004005B030BD696B0906F1
:10588000F6D5C520A8632046F6E700009800002062
:1058900070B585B004464FF4D570009001A908207A
:1058A0004025002681E86100C00104906946204639
:1058B000FFF74BFF12484FF4FA510068B0FBF1F0CC
:1058C00041F288314843401E03D24FF0004005B0FA
:1058D00070BD616B11F0450FF5D00905F3D4606B15
:1058E000400701D5042003E0606BC00702D001200F
:1058F000A063ECE7606B400600D5A5633046E6E7A1
:105900009800002010B586B004461220CDE90010A2
:1059100040200290002003904FF48060049069467C
:105920002046FFF712FF41F288321221204600F094
:10593000F5F806B010BD10B586B004461120CDE9CB
:10594000001040200290002003904FF480600490EB
:1059500069462046FFF7F9FE41F2883211212046C0
:1059600000F0DCF806B010BD10B586B00446072084
:10597000CDE9002040200290002003904FF4806089
:10598000049069462046FFF7E0FE41F28832072185
:10599000204600F0C3F806B010BD10B586B004462E
:1059A00000210220CDE90010C020CDE902014FF412
:1059B0008060049069462046FFF7C7FE204600F04D
:1059C0003DF906B010BD10B586B004460920CDE9FA
:1059D0000010C0200290002003904FF480600490DB
:1059E00069462046FFF7B1FE204600F027F906B0D1
:1059F00010BD10B586B0044600213320CDE900105B
:105A00004020CDE902010001049069462046FFF7DD
:105A10009CFE41F288323321204600F07FF806B028
:105A200010BD10B586B004460D20CDE90010402011
:105A30000290002003904FF4806004906946204655
:105A4000FFF783FE41F288320D21204600F066F810
:105A500006B010BD30B585B00C46054600210320C8
:105A6000CDE900104020CDE9020100010490694613
:105A70002846FFF76AFE22460321284600F028F94F
:105A800005B030BD10B586B0044600210C20CDE92C
:105A900000104020CDE90201000104906946204633
:105AA000FFF753FE034A0C21204600F037F806B0FA
:105AB00010BD000000E1F50510B586B004461920C0
:105AC000CDE9001040200290002003904FF4806048
:105AD000049069462046FFF738FE41F288321921CA
